:1000000012C01FC01EC01DC01CC01BC01AC019C01A
:1000100018C017C016C015C014C013C012C011C03C
:1000200010C00FC00EC011241FBECFEDCDBF20E009
:10003000A0E6B0E001C01D92AE36B207E1F77FD076
:100040008BC1DECF909808958111FCCF909A0895CE
:10005000880F991F880F991F20E030E007C0819A10
:10006000E2E7F1E03197F1F72F5F3F4F28173907AB
:10007000B1F791980895CF93C82F82E390E0E8DF1D
:100080002FE43DE983E0215030408040E1F700C09B
:1000900000008AEF90E0DCDF9FE0EBEDF7E19150AC
:1000A000E040F040E1F700C0000082B38C2B82BB3F
:1000B00083E597EE0197F1F700C0000082B39C2F13
:1000C0009095892382BBE7EAFEEC21E0E150F04005
:1000D0002040E1F700C0000082B38C2B82BBE3E537
:1000E000F7EE3197F1F700C0000082B3892382BB9D
:1000F000CF910895CF93C82F613021F482B38C2B18
:1001000082BB1BC0611105C082B3C095C823C2BBAE
:1001100014C0623071F482B38C2B82BB82E390E016
:1001200097DF82B3C095C823C2BB82E390E0CF9132
:100130008FCF633011F4CF919ECFCF91089580E09F
:1001400083DF81B38F6381BB82B3817C82BB87B342
:1001500017BA88B38FEF88BB8E98969AC4E062E096
:100160008CE3C8DFC150D9F721E080916000909105
:10017000610001969093610080936000892B09F4DF
:10018000859AB69B08C080916D00811104C0C69A03
:1001900020936D0009C0B69910C080916D0088232E
:1001A00061F0C69810926D0080916700B79B02C005
:1001B0008F5F01C0815080936700B19B0EC080911A
:1001C0006A0081110AC0C19A20936A00809164007C
:1001D0008F5F8093640092980FC0B1990DC0809199
:1001E0006A00882349F0C19810926A0080916400E7
:1001F0008F5F80936400929A80916400823020F037
:10020000109264001092670080916700865F8531CC
:1002100030F01092670016DF84E02DDFFDCFB49B35
:1002200008C080916C00811104C0C49A20936C00B6
:1002300009C0B49910C080916C00882361F0C49803
:1002400010926C0080916600B59B02C08F5F01C068
:10025000815080936600B09B0EC08091690081112F
:100260000AC0C09A20936900809163008F5F8093D9
:10027000630093980FC0B0990DC0809169008823E6
:1002800049F0C09810926900809163008F5F80935D
:100290006300939A80916300823020F01092630093
:1002A0001092660080916600885E813330F0109273
:1002B0006600C8DE88E0DFDEFDCFB29B08C080911B
:1002C0006B00811104C0C29A20936B0009C0B299DF
:1002D00010C080916B00882361F0C29810926B006F
:1002E00080916500B39B02C08F5F01C081508093F5
:1002F0006500869B0EC08091680081110AC0969AA5
:1003000020936800809162008F5F809362009498D0
:100310000FC086990DC080916800882349F0969897
:1003200010926800809162008F5F80936200949ABF
:1003300080916200823020F010926200109265007D
:1003400080916500865F853108F40FCF10926500BB
:0C03500079DE80E190DEFDCFF894FFCF55
:00000001FF
