:100000000C94C0000C94DD000C94DD000C94DD0019
:100010000C94DD000C94DD000C94DD000C94DD00EC
:100020000C94DD000C94DD000C949B010C94FF01FA
:100030000C94DD000C94DD000C94DD000C94DD00CC
:100040000C94DD000C94DD000C94DD000C94DD00BC
:100050000C94DD000C94DD000C94DD000C94DD00AC
:100060000C94DD000C94DD000C94DD000C94DD009C
:100070000C94DD000C94DD000C94DD000C94DD008C
:100080000C94DD000C94DD000C94DD000C94DD007C
:100090000C94DD000C94DD000C94DD000C94DD006C
:1000A0000C94DD000C94DD000C94DD0000010000D8
:1000B000E3001200020000F50022002200001701F8
:1000C0003F00210000070109000300005601040160
:1000D0000309045A0110020309046C011200000113
:1000E000C106001201000200000020C0167C0400BE
:1000F000010102000109022200010100C0320904CD
:1001000000000103010100092111010001223F004B
:100110000705830308000105010906A10175019582
:1001200008050719E029E7150025018102950175E9
:1001300008810395057501050819012905910295A6
:1001400001750391039506750815002568050719C3
:100150000029688100C00403090410034D006600F3
:1001600067004E0061006D006500000012034B0047
:100170006500790062006F00610072006400000099
:1001800011241FBECFEFDAE0DEBFCDBF11E0A0E04B
:10019000B1E0E0E5F7E002C005900D92A230B107B2
:1001A000D9F721E0A2E0B1E001C01D92AD30B20765
:1001B000E1F70E94DF000C94A6030C940000E1E636
:1001C000F0E080E8808310821AB814B88FEF85B908
:1001D0008BB9569A5E9A0E941A010E9431018823B7
:1001E000E1F32FEF83ED90E3215080409040E1F761
:1001F00000C000001CC060E08CE20E948C015E9890
:100200002FEF80E792E0215080409040E1F700C05E
:10021000000060E08CE20E948C015E9A2FEF82E683
:100220009EE2215080409040E1F700C00000189904
:10023000FECFE1CF81E08093D70080EA8093D800A1
:1002400082E189BD09B400FEFDCF80E98093D8002A
:100250001092E00010920A018CE08093E200789402
:10026000089580910A010895CF93DF9380910A0148
:10027000882309F445C02FB7F89483E08093E90000
:100280009091E4009E5C8091E80085FD20C02FBF26
:1002900080910A018823B1F18091E40089130AC09A
:1002A00033C02FBF80910A01882381F1888189138F
:1002B00008C02EC0A9EEB0E033E0E8EEF0E0C4EEF6
:1002C000D0E02FB7F8943C93808185FFEACF8091EE
:1002D0000901E1EFF0E080831082E3E0F1E089E0E2
:1002E00091E0A1EFB0E031913C93E817F907D9F71D
:1002F0008AE38093E80010920B012FBF80E009C0D1
:100300008FEF07C08FEF05C08FEF03C08FEF01C0E5
:100310008FEFDF91CF9108956093090180930301DE
:100320000E943401811106C010920901109203014C
:100330000E94340108951F920F920FB60F9211245C
:100340002F938F939F93AF93BF93EF93FF93E1EE20
:10035000F0E08081108283FF0FC01092E90091E0ED
:100360009093EB001092EC0092E29093ED0098E0F5
:100370009093F00010920A0182FF35C080910A012B
:10038000882389F180910001882369F180910C0113
:100390008F5F80930C01837031F583E08093E900D7
:1003A0008091E80085FF1FC080910B018F5F8093D3
:1003B0000B0190910001891316C010920B018091DE
:1003C0000901E1EFF0E080831082E3E0F1E089E0F1
:1003D00091E0A1EFB0E021912C93E817F907D9F74C
:1003E0008AE38093E800FF91EF91BF91AF919F91D5
:1003F0008F912F910F900FBE0F901F9018951F9205
:100400000F920FB60F9211240F931F932F933F93C8
:100410004F935F936F937F938F939F93AF93BF930C
:10042000CF93DF93EF93FF931092E9008091E80060
:1004300083FF70C1E1EFF0E0C08140812081308115
:10044000932F80E0BC01622B9B0150816081962F2D
:1004500080E0BC01652BA081B08182EF8093E80031
:10046000463009F059C004C081E28093EB0059C1C5
:10047000C7E08CEA90E0FC014591549124173507C0
:1004800011F007961FC0FC013296459154916417F4
:10049000750711F0079616C0FC01349645915491EA
:1004A000242F352FFC01369664919B2F80E08A2BF8
:1004B0008F3F910519F010F08FEF90E0861728F428
:1004C000682F03C0C150B9F6CFCFC8EED0E07EEFA1
:1004D000A1EFB0E09881492F4570E1F392FD21C171
:1004E000562F613208F050E2552309F417C1C901B3
:1004F000452FFC010196E491EC934150D1F7852FF3
:10050000815090E00196280F391F651B7883611197
:10051000E1CF5032F9F205C1453061F48EEF80939E
:10052000E800E8EEF0E0808180FFFDCF20682093B6
:10053000E300F7C0493081F5C11187C020930A015B
:100540008EEF8093E80011E08DED90E0C9EED0E0F1
:10055000ABEEB0E06CEE70E04DEE50E018839C0125
:100560002F5F3F4FFC0104910C93002359F0F901D8
:100570002491FB012083FC01329603962491FA0119
:10058000208301C0C9011F5F153041F7EAEEF0E09A
:100590008EE180831082C5C0483081F4C03809F0F4
:1005A00054C0E8EEF0E0808180FFFDCF80910A0129
:1005B0008093F1008EEF8093E800B3C041111AC020
:1005C000E8EEF0E0808180FFFDCFC23851F4E9EE23
:1005D000F0E060838091EB0085FB882780F9108232
:1005E00001C080E0E1EFF0E0808310828EEF809325
:1005F000E80097C0413011F0433039F5C23029F599
:10060000232B09F087C06F777727962F915094306E
:1006100008F080C09EEF9093E8006093E9004330BB
:1006200021F481E28093EB007CC089E18093EB00B0
:1006300081E090E09C0102C0220F331F6A95E2F72F
:10064000EAEEF0E0208310826CC0672B09F062C0F4
:10065000C13AD1F54130D1F4E8EEF0E0808180FF7D
:10066000FDCF80910901E1EFF0E080831082E3E0AB
:10067000F1E089E091E0A1EFB0E021912C93E8173F
:10068000F907D9F78EEF8093E8004BC0423069F448
:10069000E8EEF0E0808180FFFDCF80910001809343
:1006A000F1008EEF8093E8003CC0433099F5E8EE0E
:1006B000F0E0808180FFFDCF809101018093F10007
:1006C0008EEF8093E8002DC0C13221F5493081F4CE
:1006D000E8EEF0E0808182FFFDCF8091F100809311
:1006E0000201E8EEF0E08BEF80838EEF808319C08B
:1006F0004A3041F43093000110920B018EEF809349
:10070000E8000FC04B3031F4209301018EEF80934D
:10071000E80007C081E28093EB0003C07883611199
:10072000D9CEFF91EF91DF91CF91BF91AF919F9182
:100730008F917F916F915F914F913F912F911F9179
:100740000F910F900FBE0F901F901895F894FFCF48
:020750007D0129
:00000001FF
